:0200000080245A
:200023000200AE121E530201A8246327742D4D61635072696E742028632920432E4D6579E2
:20004300657220342F39352056312E3031201E4142434445464748494A4B4C4D4E4F505188
:2000630052535455565758595A8E999A201E6162636465666768696A6B6C6D6E6F7071720D
:20008300737475767778797A849481201E303132333435363738392122152425262F28297E
:2000A3003D5B5D2A2B232C2E2D2020C0D075D010C0E0C0F0C082C083209803020107E52283
:2000C3002424F8A699C2980522E522D3941F50030200D9752200E522C39523FA7B001203BF
:2000E3000AEAD3941B5003020107D2B2A208740033FEA2B7B3EE82E04003020107C29975DE
:200103009913C20820990302010FC299D083D082D0F0D0E0D0D0327545007546007C2B7DBD
:2001230000AA47AB481202E8E545D39AE54664806303809B4003020157754400E544D394CF
:20014300FD400302014D054480F20545E4B54502054680C9228544448544442285499012C5
:200163000158C2B3120158D2B312015820B5FD1201581201581201587590FF22754401E57B
:2001830044D3948040030201A4E54490002C2582F58250020583E493F54912015F0544807A
:2001A300DE30B6D8227B00121E0075A800D2BCD2ACD2AF75B0FFC2B2C298754400E544D382
:2001C300941F40030201D5E5442424F87600054480EBC2087544FE752200752301E523D32F
:2001E3009405400302020785449030B4030201F68523227401FEE544C333DEFC4401F54428
:20020300052380D9E5226003020214758DD0020220E52264016003020223758DE802022FCF
:20022300E52264026003020232758DF402023EE52264036003020241758DFA02024DE52213
:2002430064046003020250758DFD02025CE5226405600302025F758DFF02025F752300E506
:2002630023D39522400302028D75905575470275480012011A7590AA7547027548001201BB
:200283001A0523E523600380D6007590FF75220075230030B60302029F12017FE522652378
:2002A30070030202C4E5232424F8864912015F0523E523D3941F50030202C175230002020D
:2002C300E4C2B2A208B3E433FEA2B7B3EE82E040030202DEC299759911D2087590FE759074
:2002E300FF80B080FEEEC0E0EFC0E0EA8CF0A4FEAFF0EA8DF0A42FFFEB8CF0A42FFBEEFA34
:16030300D0E0FFD0E0FE22EB30E70AEAF42401FAEBF43400FB222C
:201E0000EB600414602F22E589540F2420F589C29FD29E758DFAD28EE5874480F587D29CD4
:201E2000D299C20122C083C082908100E020E7FCD082D08322C083C0829080007438F0D110
:201E400025740CF0D1257406F0D1257401F0D082D08322754A4BD000D001854A81C001C0EF
:021E600000225E
:00000001FF
